:020000042000DA
:10000000554F5343000101000300000000000000B1
:1000100053000020A70000205D0300206D03002096
:1000200047000020490000206F030020000000006E
:1000300000000000000000000000000000000000C0
:040040000D0400208B
:100044007047704770477047704770477047104B50
:10005400104A2DE9F041884607460021934202D018
:1000640003F8011FFAE70C4B0C4CE41AA41000250A
:100074001E46A54205D056F8253003B198470135F0
:10008400F7E74146384600F00BF8BDE8F08100BFC1
:100094004F040020A304002040000020440000205E
:1000A4007047A24B9FEDA27AD3ED064A9FEDA15A69
:1000B400D3ED043AD3ED051A93ED0C4A9FED9E0A55
:1000C40070B51C7B14F0010F254684886FF300057E
:1000D4002DED068B4FEA24201D734FF0000518BF49
:1000E4001D609628D8BF0646E4B200F10100C0B2F4
:1000F40007EE904AC8BF9726904C5D62962888BF49
:100104009720F8EEE77A04EB860604EB8000D6ED40
:10011400005ADD6267EE877A90ED007A88481D64A4
:1001240037EE657A9D64E7EE875A864DDFED867A71
:100134009FED869A9FED868AF4EEE75AF1EE10FA67
:10014400A8BFF0EE675ADFED837A65EEA75A01EB9C
:10015400820265EEA46AC3ED015A66EE856AF5EE85
:10016400008AFCEEE67AFFEE009A17EE904A00EB66
:10017400840696ED007A96ED016AF8EE677A36EE1B
:10018400476A76EEE76AA6EE867AF7EE006A77EEBD
:10019400267AB0EE66AA87EE273A37EE667A83EDC2
:1001A400083AC7EE272AC6EEA47AD3ED134A83EDA4
:1001B400073A67EEA57AC3ED0A2A67EE857A93EDCE
:1001C400025ABCEEE77A17EE104A06EE104AB8EE71
:1001D400466A00EB840677EEC67A96ED007A96EDD1
:1001E400016A36EE476AA7EE867A93ED006AF0EE6E
:1001F400477A37EE267A77EEE67A86EE872AC7EED6
:10020400870AB1EE421A83ED0E2A83ED0F1AC3ED6D
:10021400110A91427ED0B4EEE36AF1EE10FA04D5ED
:1002240086EE237A21EE877A0DE076EE637A76EE17
:10023400E3AA87EEAA7A76EEE17AF0EE61AAE7EE17
:1002440027AAB0EE6A7A37EE287AFCEEC77AF8EE7F
:10025400677A77EE677A67EE897ABCEEE77A17EE0B
:10026400104A04F07F000AEE904A05EB8006013044
:10027400F8EE6AAA00F07F0005EB800077EEEA7AD8
:1002840096ED007AD0ED00AA7AEEC7AA7F2CA7EEED
:10029400AA7AF0EE477A88BFF1EE477AF1EE677AF0
:1002A400B0EE447AA3EE277A27EE624AA3EE274AF9
:1002B400F0EE647AE2EE077A67EEE04A77EEC57A0A
:1002C400E1EE074AA6EE275AB4EEE95AF1EE10FA27
:1002D40009DBB4EEE65AF1EE10FAB4BFF0EE457A5B
:1002E400F0EE4A7A01E0FFEE007A27EEA77A36EEC6
:1002F400256A27EEC77AE7EE087A67EE807AFDEE84
:10030400E77AE1EC017AFCEEC67AF8EE677A36EE2B
:10031400676A7EE7BDEC068B83ED0C4AC3ED134A96
:1003240083ED025A83ED006A70BD00BF50040020C3
:100334008180803BBC9C02440000004F00F1000817
:1003440064F70008DC2B010849FFB846000080432D
:10035400CDCC4C3C3EC3AE37024A137B43F0010381
:1003640013737047500400207047012807EE901A59
:100374001ED002D3022836D07047F8EEE77A9FEDFC
:100384001F7A67EE877AF5EEC07AF1EE10FA09DB90
:10039400B7EE007AF4EEC77AF1EE10FAA8BFF0EEE9
:1003A400477A01E0DFED167A164BC3ED047A704705
:1003B400F8EEE77A9FED117A67EE877AF5EEC07A68
:1003C400F1EE10FA09DBB7EE007AF4EEC77AF1EE3B
:1003D40010FAA8BFF0EE477A01E0DFED097A094B85
:1003E400C3ED057A7047F8EEE77AB7EE007A77EE58
:1003F400877A044BC3ED067A704700BF0AD7233CC3
:1004040000000000500400200F4B197B6FF3000123
:1004140019734FF07C510022196159614FF07E51DC
:100424001A605A609A609961DA611A625A629A6231
:10043400DA621A635A639A63DA631A645A649A64CE
:0C044400DA641A65704700BF5004002005
:040000052000005384
:00000001FF
