:020000042000DA
:10000000554F5343000101000300000000000000B1
:1000100053000020A7000020BD010020BF010020E8
:100020004700002049000020C1010020000000001E
:1000300000000000000000000000000000000000C0
:040040009103002008
:100044007047704770477047704770477047104B50
:10005400104A2DE9F041884607460021934202D018
:1000640003F8011FFAE70C4B0C4CE41AA41000250A
:100074001E46A54205D056F8253003B198470135F0
:10008400F7E74146384600F00BF8BDE8F08100BFC1
:10009400B7030020E30300204000002044000020B8
:1000A400704770B584889FED3D7A2312962B0D46D8
:1000B400E1B2D8BF1C4603F10103DBB207EE901A8C
:1000C400C8BF97243649962B88BF9723F8EEE77A62
:1000D40001EB840401EB83032DED088B67EE877A33
:1000E400D4ED008A93ED007A90ED009A2D4BDFED6C
:1000F4002EAA93ED008A9FED2DAA37EE687ABAEE08
:10010400E09AE7EE878A05EB82061C46DFED287A43
:1001140083ED029AF4EEE78AF1EE10FAB8BFF0EE3E
:10012400687ADFED248A67EEA88ABFEE00BAC3EDD1
:10013400018AF7EE009AB5422AD0B0EE480AF0EEF2
:10014400490A38EE288A174800F092F8FCEEC87A7B
:10015400B4EECB0AF8EE677AF1EE10FA38EE678A5D
:1001640007DBB4EEE90AF1EE10FAA8BFB0EE690AB3
:1001740001E0BFEE000A60EE007A60EE677AA7EE57
:10018400AA0A20EE0A0ABDEEC00AA5EC010AD2E7CB
:1001940084ED008ABDEC088B70BD00BF8180803B7C
:1001A40000F10008B8030020CDCC4C3D0000004F06
:1001B40049FFB8463EC3AE377047704707EE901A02
:1001C4009FED247AF8EEE77A27EE877A072840D85D
:1001D400DFE800F0040C141E2630383C9FED1E7A34
:1001E4001E4B67EE877AC3ED057A70479FED1C7A44
:1001F4001A4B67EE877AC3ED087A70479FED197A38
:10020400DFED156A154BA7EEA67A83ED067A7047E3
:100214009FED137A114B67EE877AC3ED097A704725
:100224009FED117ADFED116A0C4BA7EEA67A83EDF0
:10023400077A70479FED0A7A084B67EE877AC3ED19
:100244000A7A7047054B83ED037A7047034B83EDBD
:10025400047A70470820803AA69B443BB8030020E8
:100264000AD7233C9A99993E9A99193F6F12833B76
:10027400D0ED057A90ED035A90ED087A90ED066A78
:10028400D0ED096A90ED074AD0ED0A4AF0EE605AC3
:10029400E7EE855AD0ED047AF4EEC05AF1EE10FA86
:1002A40027EE877A04DDC0EE257A67EE877A39E097
:1002B400F0EE603AE5EE063A67EEA66AF4EEC03A6E
:1002C400F1EE10FA0CDD30EE650A73EEE50A76EE17
:1002D400C77AC0EE206AA7EEA67AF0EE477A21E04C
:1002E400E5EE040A67EEA47AF4EEC00AF1EE10FA21
:1002F4000CDD30EE630A70EEE30A37EEE67AC0EE08
:10030400207AE7EE276AF0EE667A0BE0B7EE007A21
:1003140030EE600A77EE600A77EE676A80EE207A44
:10032400E6EE877A174AB5EE007A77EE877ABCEE66
:10033400E77AB8EE477A77EEC77A9FED137A67EEDD
:10034400877ABCEEE77A17EE101A01F07F0302EB0E
:1003540083000133B8EE477A03F07F0302EB830393
:1003640090ED000A77EEC77A93ED007A37EE407A83
:100374007F29A7EE870A88BFB1EE400AB1EE400A92
:10038400704700BFDC2B010800008043074B0022AC
:100394001A605A609A604FF07C52DA601A615A61AE
:1003A4009A61DA611A625A629A627047B80300204D
:040000052000005384
:00000001FF
