:020000042000DA
:10000000554F5343000101000300000000000000B1
:1000100053000020A700002001020020030200205E
:1000200047000020490000200502002000000000D9
:1000300000000000000000000000000000000000C0
:04004000CD030020CC
:100044007047704770477047704770477047104B50
:10005400104A2DE9F041884607460021934202D018
:1000640003F8011FFAE70C4B0C4CE41AA41000250A
:100074001E46A54205D056F8253003B198470135F0
:10008400F7E74146384600F00BF8BDE8F08100BFC1
:10009400F703002023040020400000204400002037
:1000A400704770B584889FED4E7A2312962B0D46C7
:1000B400E1B2D8BF1C4603F10103DBB207EE901A8C
:1000C400C8BF97244749962B88BF9723F8EEE77A51
:1000D40001EB840401EB83032DED088B67EE877A33
:1000E400D4ED008A93ED007A3F4BDFED40AA93ED07
:1000F400049AD3ED059A93ED008A9FED3DAA37EE5D
:10010400687A06EE902AE7EE878A05EB82061C469B
:10011400DFED387A90ED007AF4EEE78AF1EE10FA2A
:10012400B8BFF0EE687ADFED348A67EEA88AD3EDC3
:100134000A7AC3ED018ABAEEE07AF8EE677AF8EE4D
:10014400666A67EE877A83ED027AC3ED037A37EE47
:10015400497A77EEE97A87EE26BAC7EEA6BAB542AF
:1001640034D02148B0EE691AF0EE490AB0EE480ADC
:1001740000F06AF838EE288A39EE0B9AFCEEC87A59
:1001840079EEAB9AF8EE677A38EE678AFFEE007A7A
:10019400B4EEE70AF1EE10FA09DBF7EE007AB4EEFA
:1001A400E70AF1EE10FAA8BFB0EE670A01E0B0EE7C
:1001B400670A60EE007A60EE677AA7EEAA0A20EE7C
:1001C4000A0ABDEEC00AA5EC010AC8E784ED008A5C
:1001D40084ED049A84ED059ABDEC088B70BD00BFD4
:1001E4008180803B00F10008F8030020CDCC4C3D19
:1001F4000000004F49FFB8463EC3AE377047704712
:1002040007EE901A0128F8EEE77A0BD002D3022801
:1002140010D070479FED097A094B67EE877AC3EDDA
:10022400087A70479FED077A054B67EE877AC3ED2E
:10023400097A7047024B9962704700BF0AD7233C82
:10024400F8030020CDCC4C3DB5EE007A70EE870A61
:100254005B4B70EE870A10B5FCEEE07A31EE071ABC
:10026400F8EE677A70EEE70ADFED567A60EEA70AD9
:10027400B0EE675AFCEEE06A16EE901A01F07F02C7
:1002840006EE101A03EB82040132B8EE466A02F05D
:100294007F0203EB8202D4ED006A70EEC60A92ED8F
:1002A400006A36EE666A7F29E0EE866AB6EE006A78
:1002B40088BFF1EE666AF0EE467AE6EE867AD0ED15
:1002C400066AC0ED067A77EEE65AE0EE256AD0EDCE
:1002D400085A66EEA56AFCEEC15AB4EEE60AF8EED8
:1002E400655A31EE651A21EE051AFCEEC17A17EE55
:1002F400901A01F07F0203EB8204013202F07F02C4
:1003040003EB8202D4ED005AD2ED004AF8EE677A8C
:1003140074EEE54A31EE671A7F29E1EE245AD0EDF6
:10032400077A88BFF1EE655AA5EE866AF1EE10FAF7
:1003340076EE675A80ED076AE0EE257A58BFB7EE8D
:10034400006AD0ED095A5CBF30EE660A76EE666A42
:1003540067EEA57A55BFC0EE265A80EE266A36EEC1
:10036400676A66EE277A58BFE5EE867A37EE877AB3
:10037400FCEEC77AF8EE677A37EE677A67EE057AAD
:10038400BCEEE77A17EE101A01F07F0203EB82004D
:100394000132B8EE477A02F07F0203EB820390ED5C
:1003A400000A77EEC77A93ED007A37EE407A7F2918
:1003B400A7EE870A88BFB1EE400AB1EE400A10BD2D
:1003C400DC2B010800008043084B4FF07E521A6278
:1003D4005A6201229A6200221A605A609A60DA60B4
:1003E4001A615A619A61DA61704700BFF80300200C
:040000052000005384
:00000001FF
