:020000042000DA
:10000000554F5343000101000300000000000000B1
:1000100053000020A70000207D0300208D03002056
:1000200047000020490000208F030020000000004E
:1000300000000000000000000000000000000000C0
:04004000F1030020A8
:100044007047704770477047704770477047104B50
:10005400104A2DE9F041884607460021934202D018
:1000640003F8011FFAE70C4B0C4CE41AA41000250A
:100074001E46A54205D056F8253003B198470135F0
:10008400F7E74146384600F00BF8BDE8F08100BFC1
:100094002F0400207B0400204000002044000020A6
:1000A4007047A84B9FEDA85A9FEDA87A93ED046A78
:1000B4009FEDA74A9FEDA70ADFEDA70A70B51C7A4A
:1000C40014F0010F254684884FEA24202DED068B79
:1000D4006FF3000518BF83ED005A96281D72E4B231
:1000E400D8BF054600F10100C0B207EE904AC8BF70
:1000F40097259A4C83ED075A962888BF9720F8EEE7
:10010400E77A04EB850504EB8000D5ED005A83ED16
:10011400095A67EE877A90ED007A914883ED0E5A7A
:1001240037EE657A83ED105AE7EE875A01EB8202C7
:10013400DFED8C7ADFED8C8AF4EEE75AF1EE10FAFB
:10014400A8BFF0EE675ADFED897A65EEA75ADFEDB6
:10015400887AC3ED015A25EE867AB6EE001A77EE58
:10016400676AB5EE008AF5EEC06AF1EE10FAF7EEB2
:10017400006AB8BFF0EE477A86EE867A67EE847A34
:1001840027EE256ABFEE009A35EE467A93ED115AB2
:10019400B5EEC07A9FED6C7AF1EE10FAB8BFB0EE0E
:1001A400467ABCEEE76AF0EE669A16EE104A04EE62
:1001B400904AF8EE644A00EB840595ED006A77EE08
:1001C400E47AD5ED014A74EEC64AA7EEA46AD3EDEB
:1001D4000A4A76EE267AC6EE273A36EE666AC3ED0A
:1001E400063AC6EE272A67EE047A93ED034AC3ED76
:1001F400053ABCEEE77AC3ED082A17EE104A06EE7C
:10020400104AB8EE466A00EB840595ED007A77EE65
:10021400C67A95ED016A574D36EE476AA7EE867A9F
:1002240093ED006AF0EE477A37EE267A77EEE67AB7
:1002340086EE873AC7EE871AB1EE432A83ED0C3A6D
:1002440083ED0D2AC3ED0F1A914272D0B4EEC46A45
:10025400F1EE10FA5BBF76EE447A36EEC4AA86EE6F
:10026400047A87EE8A7A58BF37EE267A27EE017A27
:1002740037EE087AFCEEC77AF8EE677A77EE677A9B
:1002840067EEA87ABCEEE77A17EE104A04F07F0016
:100294000AEE104A05EB80060130B8EE4AAA00F0D7
:1002A4007F0005EB800077EECA7A96ED007A90ED38
:1002B40000AA3AEE47AA7F2CA7EE8A7AF0EE477A94
:1002C40088BFF1EE477AF1EE677AB0EE647AA3EE76
:1002D400A77A67EE624AE3EEA74AF0EE457AE3EEC8
:1002E400077A27EEE15AF4EEC97AF1EE10FAA2EE9B
:1002F400075A07DBF4EEE67AF1EE10FAA8BFF0EE47
:10030400697A01E0FFEE007A27EEA77A36EE256AD5
:1003140027EEC77AE7EE007A67EEA07AFDEEE77A79
:10032400E1EC017AFCEEC67AF8EE677A36EE676A9B
:100334008AE7BDEC068BC3ED0A4A83ED115A83EDBF
:10034400006A70BD30040020000000008180803B02
:10035400BC9C0244CDCC4C3D0000004F00F1000891
:1003640064F7000849FFB846000080433EC3AE3737
:1003740048E1FA3EDC2B0108024A137A43F00103F8
:100384001372704730040020704707EE901A10B1C2
:1003940001281BD07047F8EEE77A9FED117A67EEDB
:1003A400877AF5EEC07AF1EE10FA09DBB7EE007A3F
:1003B400F4EEC77AF1EE10FAA8BFF0EE477A01E046
:1003C400DFED087A084BC3ED037A7047F8EEE77A5D
:1003D400B7EE007A77EE877A034BC3ED047A704761
:1003E4000AD7A33B00000000300400200E4B197A0A
:1003F4006FF3000119724FF07C510022D9604FF065
:100404007E511A605A6019615A619A61DA611A62FE
:100414005A629A62DA621A635A639A63DA631A64F2
:0C0424005A649A64704700BF3004002046
:040000052000005384
:00000001FF
