:020000042000DA
:10000000554F5343000101000300000000000000B1
:1000100053000020A70000202102002071030020CF
:10002000470000204900002073030020000000006A
:1000300000000000000000000000000000000000C0
:04004000BD030020DC
:100044007047704770477047704770477047104B50
:10005400104A2DE9F041884607460021934202D018
:1000640003F8011FFAE70C4B0C4CE41AA41000250A
:100074001E46A54205D056F8253003B198470135F0
:10008400F7E74146384600F00BF8BDE8F08100BFC1
:10009400F70300203F04002040000020440000201B
:1000A4007047594BDFED592A187AD3ED013A93ED95
:1000B400035A93ED042AD3ED051A93ED071AD3EDF1
:1000C400095AD3ED0B0A93ED0C0A93ED106A9FEDD8
:1000D400503A70B50446C00748BF00202DED068B8A
:1000E40048BF18606FF30004D3ED006A93ED0E8AE5
:1000F4009FED489A484D1C7201EB8202B6EE004A0D
:10010400F7EE004AF5EE008AFFEE009A914272D0B3
:10011400F4EEC56AF1EE10FA5BBF76EEC57A34EE02
:10012400C5AA86EE857A87EE8A7A58BF37EE247A96
:1001340027EE047A37EE287AFCEEC77AF8EE677A6F
:1001440077EE677A67EE897ABCEEE77A17EE104AA3
:1001540004F07F000AEE104A05EB80060130B8EE89
:100164004AAA00F07F0005EB800077EECA7A96ED8C
:10017400007A90ED00AA3AEE47AA7F2CA7EE8A7A7D
:10018400F0EE477A88BFF1EE477AF1EE677AB0EE87
:10019400657AA7EE827A61EE475AE7EEA15AF0EE4D
:1001A400467AE7EE207A28EE676AF4EEE97AF1EE11
:1001B40010FAA7EE006A07DBF4EEE47AF1EE10FA27
:1001C400A8BFF0EE647A01E0FFEE007A27EEA77A8A
:1001D40076EEA36A27EEC77AE7EE227A67EE837A91
:1001E400FDEEE77AE1EC017AFCEEE67AF8EE677A66
:1001F40076EEE76A8AE7BDEC068BC3ED095A83ED18
:10020400106AC3ED006A70BDF8030020CDCC4C3DEC
:100214000000004F00008043DC2B01084C4B818818
:100224001A7ADFED4C7ADFED4C5A42F0010210B538
:100234001A720A12962AD8BF1046C9B202F10102F4
:10024400D2B206EE901AC8BF97204449962A88BFB6
:100254009722F8EEE66A01EB800001EB820290ED52
:10026400007A66EEA76AD2ED007A3D4A77EEC77A45
:10027400A6EEA77AF2EE006AF0EE477A9FED397A9D
:10028400F4EEC77AF1EE10FAB8BFB0EE677ADFED9C
:10029400367A67EE277A67EEA66AC3ED017A66EED0
:1002A400A56ABCEEE67A17EE101A06EE101AB8EE3E
:1002B400466A02EB810090ED007A76EEC66A90ED14
:1002C400016A36EE476A0021A6EE867A99611962C0
:1002D400F7EE006A37EE266A596387EE065AD96349
:1002E40037EE667A83ED055A83ED045A87EE065A93
:1002F400B4EE007A67EE877A83ED075A67EEA57A43
:10030400BCEEE77A17EE100A06EE100AB8EE466A5B
:1003140002EB800477EEC67A94ED007A94ED016ADC
:1003240036EE476AA7EE867A37EE266AF0EE477A0B
:1003340086EE867A77EEE67A83ED0B7AB1EE477A2B
:1003440083ED0C7A87EE867A83ED0E7A10BD00BFBA
:10035400F80300208180803BBC9C024400F100082B
:1003640064F7000849FFB8463EC3AE37704707EE4E
:10037400901AC8B9F8EEE77A9FED0C7A67EE877A9F
:10038400F5EEC07AF1EE10FA09DBB7EE007AF4EE7E
:10039400C77AF1EE10FAA8BFF0EE477A01E0DFED7C
:1003A400047A044BC3ED037A704700BF0AD7233C99
:1003B40000000000F80300200C4B197A6FF30001D1
:1003C400002219724FF07C511A605A60D9601A6188
:1003D4005A619A61DA611A625A629A62DA621A633B
:1003E4005A639A63DA631A645A647047F803002004
:040000052000005384
:00000001FF
