:020000042000DA
:10000000554F5343000101000300000000000000B1
:1000100053000020A70000205502002057020020B6
:100020004700002049000020590200200000000085
:1000300000000000000000000000000000000000C0
:04004000790400201F
:100044007047704770477047704770477047104B50
:10005400104A2DE9F041884607460021934202D018
:1000640003F8011FFAE70C4B0C4CE41AA41000250A
:100074001E46A54205D056F8253003B198470135F0
:10008400F7E74146384600F00BF8BDE8F08100BFC1
:1000940087040020BF04002040000020440000200A
:1000A4007047F8B50D4681889FED607A604E0B125B
:1000B400962BD8BF1C46C9B203F10103DBB207EE8D
:1000C400901AC8BF97245B49962B88BF9723F8EEF4
:1000D400E77A01EB840401EB83032DED0C8B67EECF
:1000E400877A94ED009A93ED007A534B9FED53DA9F
:1000F400D3ED039AD3ED008A93ED04CA93ED058AF8
:100104009FED4FBADFED4FAA37EE497A05EB820730
:10011400A7EE879A1C46DFED4C7AB4EEE79AF1EE2F
:1001240010FAA8BFB0EE679ADFED487A29EE279A55
:10013400D0ED007A83ED019AFAEEE07A07EE102A08
:10014400C3ED027AB8EE477A77EEE97AF5EE00CAA3
:10015400C7EE87BAFFEE00DAB7EE00AABD425BD065
:1001640038EE2C7AB0EE680AFCEEC77A78EE898A0B
:10017400F8EE677AF0EE690A77EE677A2E4867EE52
:100184008D7A3CEE088ABCEEE77A79EEAB9A17EEEC
:10019400101A01F07F0306EB83020133B8EE477AAD
:1001A40003F07F0306EB830377EEC77A92ED001A20
:1001B40093ED007A37EE417A7F29A7EE871A88BF3C
:1001C400B1EE411A00F0C0F8FCEEE87AB4EEED0AA4
:1001D400F8EE677AF1EE10FA78EEE78AFCEEC87A68
:1001E400F8EE677A38EE678A07DBB4EECA0AF1EEF6
:1001F40010FAA8BFB0EE4A0A01E0BFEE000A60EEB2
:10020400007A60EE677AA7EE8B0A20EE2A0ABDEE2A
:10021400C00AA5EC010AA1E7C4ED008A84ED058AB1
:10022400C4ED039ABDEC0C8BF8BD00BF8180803B0C
:10023400DC2B010800F10008880400200000804342
:10024400CDCC4C3D0000004F49FFB8463EC3AE370D
:100254007047704707EE901A9FED297AF8EEE77A17
:1002640027EE877A07284AD8DFE800F0040C141E2A
:100274002630383C9FED237A234B67EE877AC3ED13
:10028400087A70479FED217A1F4B67EE877AC3ED9A
:100294000B7A70479FED1E7ADFED1A6A1A4BA7EEB0
:1002A400A67A83ED097A70479FED187A164B67EEAC
:1002B400877AC3ED0C7A70479FED167ADFED166AE4
:1002C400114BA7EEA67A83ED0A7A70479FED0F7A59
:1002D4000D4B67EE877AC3ED0D7A70470A4B83EDB9
:1002E400067A7047084B83ED077A9FED0C7A67EE28
:1002F400877A9FED0B7A67EE877AC3ED047A7047AD
:100304000820803AA69B443B880400200AD7233C5B
:100314009A99993E9A99193F6F12833B8FC2F53C83
:100324003EC3AE370022026042608260C260026156
:1003340042614FF07C528261C26102624262826217
:10034400C26202634263704790ED067A90ED085AE8
:10035400D0ED074AD0ED0B7A90ED096AD0ED0C5A36
:10036400D0ED0A3A90ED0D4A27EE055A64EEA77ACD
:1003740025EE205A67EE817AB4EEC05AF1EE10FAF7
:1003840004DD80EE051A21EE271A3FE027EE066A07
:1003940066EE206A24EEA56AF4EEC06AF1EE10FA65
:1003A40026EE016A0CDD30EE450A76EEC50A36EE1D
:1003B400671A80EE207AE1EE077AB0EE671A25E03C
:1003C40027EE237A64EE844A67EE200A24EE811A2B
:1003D400F4EEC00AF1EE10FA0CDD30EE660A70EEAF
:1003E400E60A71EE467A80EE207AA7EE876AB0EECE
:1003F400461A0BE0F7EE007A30EE600A77EEE00A78
:1004040037EEC17AC0EE207AA7EE271A174AF5EE26
:10041400007A31EE271AFCEEC17AF8EE677A31EEF3
:10042400671ADFED137A21EE271AFCEEC17A17EE74
:10043400901A01F07F0302EB83000133F8EE677A30
:1004440003F07F0302EB830390ED000A31EE671A99
:10045400D3ED007A77EEC07A7F29A1EE270A88BF10
:10046400B1EE400AB1EE400A704700BFDC2B010830
:100474000000804308B50248FFF754FF08BD00BFE1
:0404840088040020C8
:040000052000005384
:00000001FF
