:020000042000DA
:10000000554F5343000101000300000000000000B1
:1000100053000020A70000203502002045020020E8
:100020004700002049000020470200200000000097
:1000300000000000000000000000000000000000C0
:040040006D0200202D
:100044007047704770477047704770477047104B50
:10005400104A2DE9F041884607460021934202D018
:1000640003F8011FFAE70C4B0C4CE41AA41000250A
:100074001E46A54205D056F8253003B198470135F0
:10008400F7E74146384600F00BF8BDE8F08100BFC1
:100094008702002097020020400000204400002036
:1000A400704770B5594C8088237A9FED597A9FED3B
:1000B400592A9FED593ADFED593A6FF30003237241
:1000C4000312962BD8BF1D46C0B203F10103DBB265
:1000D40007EE900AC8BF97252046962B504CD0EDCA
:1000E400006AD0ED035A88BF9723F8EEE77A04EB51
:1000F400850504EB830395ED006A4A4D67EE877A24
:1001040093ED007A37EE467A01EB8202A7EE876A16
:10011400DFED457AB4EEE76AF1EE10FAA8BFB0EE6F
:10012400676ADFED427A26EE276AB6EE004A80ED72
:10013400016AB7EE005AF5EE002AFFEE001A91426A
:1001440060D0F4EEE56AF1EE10FA5BBF36EEE57AC4
:1001540075EE654AC6EEA57AC7EE247A58BF77EEE7
:10016400857A67EE847A77EEA27ABCEEE77AB8EE07
:10017400477A37EEC77A27EE027AFCEEC77A17EE93
:10018400904A04F07F0304EE904A05EB83060133A2
:10019400F8EE644A03F07F0305EB8303D6ED007A9F
:1001A40037EE647AD3ED004A74EEE74A7F2CE7EE2B
:1001B400247A88BFF1EE677AF1EE677AF4EEE17A99
:1001C400F1EE10FA07DBF4EEC57AF1EE10FAA8BFEF
:1001D400F0EE457A01E0FFEE007A27EEA77A76EE9C
:1001E400866A27EEC77AE7EE037A67EEA37AFDEE16
:1001F400E77AE1EC017AFCEEE67AF8EE677A76EEDD
:10020400E76A9CE7C0ED006A70BD00BF8802002069
:100214008180803B00008043CDCC4C3D0000004FEA
:1002240000F10008DC2B010849FFB8463EC3AE3795
:10023400024A137A43F001031372704788020020C4
:100244007047062807EE901A08D1F8EEE77A9FED7A
:10025400047A044B67EE877AC3ED037A704700BFD4
:100264000820803A88020020044B197A00226FF398
:1002740000011A605A601972DA607047880200201F
:040000052000005384
:00000001FF
