:020000042000DA
:10000000554F5343000101000300000000000000B1
:1000100053000020A700002001040020110400204C
:1000200047000020490000201304002000000000C9
:1000300000000000000000000000000000000000C0
:04004000A1050020F6
:100044007047704770477047704770477047104B50
:10005400104A2DE9F041884607460021934202D018
:1000640003F8011FFAE70C4B0C4CE41AA41000250A
:100074001E46A54205D056F8253003B198470135F0
:10008400F7E74146384600F00BF8BDE8F08100BFC1
:10009400EF0500205306002040000020440000200B
:1000A4007047C94B9FEDC95A9FEDC97AD3ED0A5ADF
:1000B4009FEDC84AD3ED071A93ED053A93ED081A5C
:1000C400D3ED062AD3ED090A70B51C7B14F0010F99
:1000D400254684884FEA24202DED0A8B6FF3000512
:1000E40018BF83ED005A96281D73E4B2D8BF0546A5
:1000F40000F10100C0B207EE904AC8BF9725B64C84
:1001040083ED0D5A962888BF9720F8EEE77A04EB22
:10011400850504EB800095ED006A83ED0F5A67EEC8
:10012400877A90ED007AAD4883ED145A37EE467A1B
:1001340083ED165AA7EE876A01EB8202DFEDA87AF7
:10014400DFEDA8AADFEDA89A9FEDA89AB4EEE76ABE
:10015400F1EE10FAA8BFB0EE676ADFEDA57A26EEDD
:10016400276ADFEDA47A83ED016A26EE257AB5EEDF
:1001740000AA77EE676ABFEE00BAF5EEC06AF1EE48
:1001840010FAF7EE006AB8BFF0EE477A86EEA57A69
:1001940067EE847A67EE065AF0EE66BA35EE657A53
:1001A400B5EEC07A9FED897AF1EE10FAB8BFB0EEE1
:1001B400657AFCEEE75A15EE904A04EE904AF8EEA2
:1001C400644A00EB8405D5ED005A77EEE47AD5ED68
:1001D400014A74EEE54AE7EEA45AD3ED104A75EEEF
:1001E400A67AC5EEA73A75EEE65AC3ED0C3A85EE4B
:1001F400A70A67EE047AC3ED0B3ABCEEE77A83ED07
:100204000E0A17EE104A05EE904AF8EE655A00EB16
:10021400840595ED007A93ED044A77EEE57AD5ED01
:10022400015A754D75EEC75AA7EEA57AF0EE477AD6
:1002340037EE267A77EEE67A86EE872AC7EE878A45
:10024400B1EE428A83ED122A83ED138AC3ED158A37
:1002540093ED007A93ED175AD3ED025A914200F0D0
:10026400A780B4EEC74AF1EE10FA04DDC7EE047AB3
:1002740067EEA17A35E0B4EEC37AF1EE10FA0ED54A
:1002840077EE447A73EE44CA87EEACCA71EE617AB3
:10029400F0EE61CAECEE27CAF0EE6C7A21E0B4EE1F
:1002A400E27AF1EE10FA0ED577EE437A72EEC3CA13
:1002B40087EEACCA70EEC17AF0EE41CAECEE27CA02
:1002C400F0EE6C7A0DE077EE627A76EEE2CA87EEB3
:1002D400ACCA76EEE07AF0EE60CAECEE27CAF0EE35
:1002E4006C7A77EE8A7ABCEEE7CAB8EE4CCA77EE3F
:1002F400CC7A67EEAA7ABCEEE7CA1CEE104A04F088
:100304007F000CEE904A05EB80060130F8EE6CCAD3
:1003140000F07F0005EB800077EEEC7A96ED00CAE2
:10032400D0ED00CA7CEECCCA7F2CA7EEACCAF0EEAE
:100334004C7A88BFF1EE4C7AF1EE677AE3EEA74A85
:10034400B0EE64CA64EEC04AE3EEA74AF0EE457A22
:10035400E2EE0C7A27EEE85A77EEE57AA8EE0C5A2C
:10036400E7EE275A37EE067AF4EECB5AFCEEC77A5C
:10037400F1EE10FAF8EE677A37EE677A09DBF4EEFD
:10038400E65AF1EE10FAB4BFF0EE657AF0EE6B7A4D
:1003940001E0FFEE007A27EEA7CA27EECCCAECEE06
:1003A400297A67EE897AFDEEE77AE1EC017A55E77E
:1003B400BDEC0A8BC3ED104A83ED175AC3ED025A04
:1003C40083ED007A70BD00BFF0050020000000003E
:1003D4008180803BBC9C024400F1000864F7000863
:1003E40049FFB84600008043CDCC4C3D0000004F8F
:1003F4003EC3AE3748E1FA3EDC2B0108024A137BC8
:1004040043F0010313737047F0050020704707EEB3
:10041400901A062800F2B780DFE800F0041F3A556E
:10042400708BA600F8EEE77A9FED577A67EE877A2D
:10043400F5EEC07AF1EE10FA09DBB7EE007AF4EECD
:10044400C77AF1EE10FAA8BFF0EE477A01E0DFEDCB
:100454004F7A4F4BC3ED047A7047F8EEE77A9FED7D
:100464004A7A67EE877AF5EEC07AF1EE10FA09DB84
:10047400B7EE007AF4EEC77AF1EE10FAA8BFF0EE08
:10048400477A01E0DFED417A414BC3ED077A7047CB
:10049400F8EEE77A9FED3C7A67EE877AF5EEC07A5C
:1004A400F1EE10FA09DBB7EE007AF4EEC77AF1EE5A
:1004B40010FAA8BFF0EE477A01E0DFED347A344B4E
:1004C400C3ED057A7047F8EEE77A9FED2F7A67EE71
:1004D400877AF5EEC07AF1EE10FA09DBB7EE007A0E
:1004E400F4EEC77AF1EE10FAA8BFF0EE477A01E015
:1004F400DFED267A264BC3ED087A7047F8EEE77AEB
:100504009FED217A67EE877AF5EEC07AF1EE10FA64
:1005140009DBB7EE007AF4EEC77AF1EE10FAA8BF61
:10052400F0EE477A01E0DFED197A194BC3ED067A54
:100534007047F8EEE77A9FED147A67EE877AF5EE66
:10054400C07AF1EE10FA09DBB7EE007AF4EEC77A5E
:10055400F1EE10FAA8BFF0EE477A01E0DFED0B7A76
:100564000B4BC3ED097A70479FED0A7ADFED0A6AF7
:10057400074BF8EEE77A67EE877AB7EE007AA7EED4
:10058400A67A83ED0A7A70470AD7233C000000005C
:10059400F00500200820803A0000C842114B0022D8
:1005A400197B1A605A609A60DA621A635A639A6312
:1005B400DA631A645A649A64DA641A655A659A6545
:1005C400DA651A664FF07C526FF300011A615A61C2
:1005D4009A61DA611A625A624FF07E5219739A6212
:0805E400704700BFF005002084
:040000052000005384
:00000001FF
