:020000042000DA
:10000000554F5343000101000300000000000000B1
:1000100053000020A70000203D0200204D020020D8
:1000200047000020490000204F020020000000008F
:1000300000000000000000000000000000000000C0
:040040007502002025
:100044007047704770477047704770477047104B50
:10005400104A2DE9F041884607460021934202D018
:1000640003F8011FFAE70C4B0C4CE41AA41000250A
:100074001E46A54205D056F8253003B198470135F0
:10008400F7E74146384600F00BF8BDE8F08100BFC1
:100094008F0200209F020020400000204400002026
:1000A400704770B55B4C8088237A9FED5B7AD4ED02
:1000B400035A9FED5A2A9FED5A3ADFED5A3A1D46EC
:1000C400DB0744BF0023236003126FF30005962B64
:1000D4002572C0B2D8BF1D4603F10103DBB207EE9F
:1000E400900AC8BF97255048D4ED006A962B88BF64
:1000F4009723F8EEE77A00EB850500EB830395ED93
:10010400006A4A4D67EE877A93ED007A37EE467AB5
:1001140001EB8202A7EE876ADFED457AB4EEE76A67
:10012400F1EE10FAA8BFB0EE676ADFED427A26EE70
:10013400276AB6EE004A84ED016AB7EE005AF5EE7E
:10014400002AFFEE001A914260D0F4EEE56AF1EE67
:1001540010FA5BBF36EEE57A75EE654AC6EEA57A0F
:10016400C7EE247A58BF77EE857A67EE847A77EE05
:10017400A27ABCEEE77AB8EE477A37EEC77A27EE72
:10018400027AFCEEC77A17EE900A00F07F0304EEC1
:10019400900A05EB83060133F8EE644A03F07F030B
:1001A40005EB8303D6ED007A37EE647AD3ED004A8B
:1001B40074EEE74A7F28E7EE247A88BFF1EE677A87
:1001C400F1EE677AF4EEE17AF1EE10FA07DBF4EE81
:1001D400C57AF1EE10FAA8BFF0EE457A01E0FFEE21
:1001E400007A27EEA77A76EE866A27EEC77AE7EEDC
:1001F400037A67EEA37AFDEEE77AE1EC017AFCEE8E
:10020400E67AF8EE677A76EEE76A9CE7C4ED006A70
:1002140070BD00BF900200208180803B00008043BD
:10022400CDCC4C3D0000004F00F10008DC2B010850
:1002340049FFB8463EC3AE37024A137A43F001037E
:1002440013727047900200207047062807EE901A38
:1002540008D1F8EEE77A9FED047A044B67EE877ACB
:10026400C3ED037A704700BF0820803A9002002053
:10027400044B197A00226FF300011A605A60197254
:08028400DA60704790020020CF
:040000052000005384
:00000001FF
