:020000042000DA
:10000000554F5343000101000300000000000000B1
:1000100053000020A70000204903002059030020BE
:1000200047000020490000205B0300200000000082
:1000300000000000000000000000000000000000C0
:04004000F9030020A0
:100044007047704770477047704770477047104B50
:10005400104A2DE9F041884607460021934202D018
:1000640003F8011FFAE70C4B0C4CE41AA41000250A
:100074001E46A54205D056F8253003B198470135F0
:10008400F7E74146384600F00BF8BDE8F08100BFC1
:100094003704002087040020400000204400002092
:1000A40070479D4B9FED9D7AD3ED054A9FED9C5A79
:1000B40093ED034A93ED042A9FED9A0ADFED9A0A21
:1000C40070B51C7A14F0010F254684886FF300057F
:1000D4002DED068B4FEA24201D724FF0000518BF4A
:1000E4001D609628D8BF0646E4B200F10100C0B2F4
:1000F40007EE904AC8BF97268C4C1D62962888BF8D
:100104009720F8EEE77A04EB860604EB8000D6ED40
:10011400005A9D6267EE877A90ED007A8448DD6329
:1001240037EE657A5D64E7EE875A824DDFED827AB9
:10013400DFED828AF4EEE75AF1EE10FAA8BFF0EE92
:10014400675ADFED7F7A65EEA75A01EB820265EE0E
:10015400A46AC3ED015A66EE856AB5EE008AFCEE28
:10016400E67ABFEE009A17EE904A00EB840696ED0D
:10017400007A96ED016AF8EE677A36EE476A76EE13
:10018400E76AA6EE867AF7EE006A77EE267AF0EE54
:10019400669AC7EE273A37EE667AC3ED073A87EEDA
:1001A400273AC6EEA47AD3ED0B4AC3ED063A67EEBE
:1001B400A57A83ED093A67EE857A93ED125ABCEE7F
:1001C400E77A17EE104A06EE104AB8EE466A00EBDC
:1001D400840677EEC67A96ED007A96ED016A36EEDD
:1001E400476AA7EE867A93ED006AF0EE477A37EE17
:1001F400267A77EEE67AC6EE872A87EE871AF1EE3C
:10020400621AC3ED0D2AC3ED0E1A83ED101A914242
:1002140078D0B4EEC46AF1EE10FA04D586EE047A0E
:1002240022EE077A0DE076EE447A36EEC4AA87EE23
:100234008A7A76EEC27AB0EE42AAA7EE27AAB0EE88
:100244004A7A37EE087AFCEEC77AF8EE677A77EEE8
:10025400677A67EEA87ABCEEE77A17EE104A04F0E4
:100264007F000AEE104A05EB80060130B8EE4AAA78
:1002740000F07F0005EB800077EECA7A96ED007AF5
:1002840090ED00AA3AEE47AA7F2CA7EE8A7AF0EE08
:10029400477A88BFF1EE477AF1EE677AB0EE647A76
:1002A400A3EEA77A67EE434AE3EEA74AF0EE457A57
:1002B400E2EE877A27EEC15AF4EEC97AF1EE10FA2B
:1002C400A1EE875A07DBF4EEE67AF1EE10FAA8BF46
:1002D400F0EE697A01E0FFEE007A27EEA77A36EEB7
:1002E400256A27EEC77AE7EE007A67EEA07AFDEE7C
:1002F400E77AE1EC017AFCEEC67AF8EE677A36EE3C
:10030400676A84E7BDEC068BC3ED0B4A83ED125A92
:1003140083ED006A70BD00BF380400208180803BFB
:10032400BC9C0244CDCC4C3C0000004F00F10008C2
:1003340064F70008DC2B010849FFB846000080433D
:100344003EC3AE37024A137A43F001031372704777
:10035400380400207047012807EE901A1ED002D3FB
:10036400022836D07047F8EEE77A9FED1F7A67EEE1
:10037400877AF5EEC07AF1EE10FA09DBB7EE007A6F
:10038400F4EEC77AF1EE10FAA8BFF0EE477A01E076
:10039400DFED167A164BC3ED037A7047F8EEE77A71
:1003A4009FED117A67EE877AF5EEC07AF1EE10FAD6
:1003B40009DBB7EE007AF4EEC77AF1EE10FAA8BFC3
:1003C400F0EE477A01E0DFED097A094BC3ED047AD8
:1003D4007047F8EEE77AB7EE007A77EE877A044B47
:1003E400C3ED057A704700BF0AD7233C0000000024
:1003F400380400200E4B197A6FF3000119724FF084
:100404007C510022D96019614FF07E511A605A6004
:1004140059619A61DA611A625A629A62DA621A63FB
:100424005A639A63DA631A645A649A64DA647047A2
:040434003804002068
:040000052000005384
:00000001FF
