:020000042000DA
:10000000554F5343000101000300000000000000B1
:1000100053000020A70000205503002065030020A6
:100020004700002049000020670300200000000076
:1000300000000000000000000000000000000000C0
:04004000490600204D
:100044007047704770477047704770477047104B50
:10005400104A2DE9F041884607460021934202D018
:1000640003F8011FFAE70C4B0C4CE41AA41000250A
:100074001E46A54205D056F8253003B198470135F0
:10008400F7E74146384600F00BF8BDE8F08100BFC1
:1000940057060020CB06002040000020440000202A
:1000A4007047F8B59F4C8088237FDFED9F5A9FED02
:1000B4009F7A9FED9F6AD4ED0B6ADFED9E4AC4EDF3
:1000C400115A03F00F066FF3030316F0080F23779A
:1000D4004FEA202318BFC4ED005A962B0D46C1B237
:1000E400D8BF184603F10103DBB207EE901AC8BF6C
:1000F40097209149C4ED135A962B88BF9723F8EEA5
:10010400E77A01EB800001EB83032DED0A8B67EEA8
:10011400877A90ED008A93ED007A884BC4ED185AE3
:1001240037EE487AF7EE008AA7EE878ADFED847A05
:10013400C4ED1A5AB4EEE78AF1EE10FAA8BFB0EE95
:10014400678A28EE068ADFED7F7A84ED018A28EE3D
:10015400267A37EE675AB5EEC05AF1EE10FAB8BFF8
:10016400F0EE477A88EEA67A67EEA47A67EE086A1C
:1001740035EEE67AB5EEC07A9FED6B7AF1EE10FAC1
:10018400B8BFB0EE667AFCEEE76A16EE901A05EE9A
:10019400101AB8EE455A03EB8100D0ED006A6149AC
:1001A40077EEC57A90ED015A35EE665AE7EE856A28
:1001B40076EEA87A86EEA75A76EEE86A84ED105AAF
:1001C40084ED0F5A86EEA75A67EE247A84ED125A0C
:1001D400BCEEE77A17EE100A06EE900AF8EE666AAD
:1001E40003EB800777EEE67A97ED007AD7ED016AA4
:1001F40076EEC76AF007A7EEA67A77EE286AF0EEE5
:10020400477A88EEA67A77EEE87A84ED167AB1EE2C
:10021400477A84ED177A87EEA67A48BFD1ED087A3B
:1002240084ED197A42BF67EE867AC1ED027AC1ED98
:10023400037AB1070BD5D4ED087A94ED0C7A67EE06
:10024400867AC4ED037A67EE277AC4ED027A7307DF
:100254000BD5D4ED087A27EE866AD4ED0D7A84EDB9
:10026400026A27EE866A84ED036A94ED00AAD4ED4F
:10027400049A94ED059AD4ED02BA94ED03CA9FED65
:1002840032BADFED32AA05EB8206B54240D0B0EEB9
:10029400491AF0EE690AB0EE4A0A224800F0F0F872
:1002A4003AEE08AA7BEEA99AFCEECA7A3CEE099AC9
:1002B400F8EE677A3AEE67AAFCEEE97AF8EE677A26
:1002C40079EEE79AFCEEC97AF8EE677A39EE679A26
:1002D400FFEE007AB4EEE70AF1EE10FA09DBB4EEB1
:1002E400E80AF1EE10FAF7EE007AA8BFB0EE670A5A
:1002F40001E0B0EE670A60EE007A60EE677AA7EE7E
:100304008B0A20EE2A0ABDEEC00AA5EC010ABCE75E
:1003140084ED00AAC4ED049A84ED059ABDEC0A8B21
:10032400F8BD00BF58060020000000008180803B1B
:100334003EC3AE37BC9C024400F1000864F70008D9
:1003440049FFB84648E1FA3ECDCC4C3C0000004F92
:10035400024A137F43F008031377704758060020BE
:10036400704707EE901AF8EEE77A062852D8DFE8CD
:1003740000F004101E2C343C4400274B9FED277AD8
:100384001A7F67EE877A42F00102C3ED087A1A7782
:100394007047DFED236A204BB7EE007AA7EEA67A0A
:1003A4001A7F42F0020283ED0C7A1A777047DFED70
:1003B4001C6A194BB7EE007AA7EEA67A1A7F42F0B0
:1003C400040283ED0D7A1A7770479FED167A124B6B
:1003D40067EE877AC3ED097A70479FED117A0E4B69
:1003E40067EE877AC3ED0A7A70479FED0E7A0A4B5F
:1003F40067EE877AC3ED0E7A70479FED0B7ADFEDD7
:100404000B6A054B67EE877AB7EE007AA7EEA67AF9
:1004140083ED0B7A704700BF580600209A99993EE5
:10042400CDCC4C3D0AD7233C0820803A0000C8427A
:10043400017F10B5002262F3030101774FF07C5174
:1004440001624FF07E51C263026442648264C264FA
:10045400026542658265C265026642668266C2665C
:100464000267026042608260C2600261426182612E
:1004740041628162C16201634163826310BD000015
:10048400D0ED0E7A6D4B70EEA70AB5EE007A70EEE1
:10049400870ADFED6B7AFCEEE06A10B5F8EE666A67
:1004A400F0EE675A70EEE60AB0EE475A60EEA70A1D
:1004B400F6EE007AFCEEE06AB0EE677A16EE901A79
:1004C40001F07F0206EE101A03EB82040132B8EE4B
:1004D400466A02F07F0203EB8202D4ED006A70EEFA
:1004E400C60A92ED006A36EE666A7F29E0EE866AF5
:1004F40031EE051A88BFF1EE666AA6EEA77AF0EE31
:10050400476A90ED097A66EE876ABCEEC17AF4EE2A
:10051400C06AB8EE477A31EE471A21EE251ABCEECE
:10052400C17A17EE101A01F07F0203EB8204013244
:10053400B8EE477A02F07F0203EB820294ED006A80
:1005440031EE471A92ED007A37EE467A7F29A1EE12
:10055400076A90ED0A7A88BFB1EE466AE6EE277A1A
:10056400F1EE10FA67EE877ADDBFB7EE007A70EE2F
:10057400664A77EE666A80EE267ADBBF84EEA66A68
:1005840037EE677A67EE877AE6EE077A90ED106ABF
:1005940037EE857AFCEEC77AF8EE677A37EE677A3B
:1005A40067EE257ABCEEE77A17EE101A01F07F02A7
:1005B40006EE901A03EB82040132F8EE666A02F04A
:1005C4007F0203EB820394ED007A77EEE67AD3EDB3
:1005D400006A76EEC76A7F29A7EEA67AD0ED146A80
:1005E400F0EE477A88BFF1EE477A90ED0F7AF1EE9C
:1005F400677AE7EE876A90ED127A27EE667AA7EEBD
:10060400867AD0ED1B7A80ED147A90ED167A90ED0F
:10061400176AE7EE267A90ED197A27EE677AA6EE46
:10062400267A80ED1B7A90ED067A77EEC77AA0EEF3
:10063400277AB0EE470A80ED067A10BDDC2B01085C
:100644000000804308B50248FFF7F2FE08BD00BF72
:040654005806002024
:040000052000005384
:00000001FF
