:020000042000DA
:10000000554F5343000101000300000000000000B1
:1000100053000020A70000202903002039030020FE
:1000200047000020490000203B03002000000000A2
:1000300000000000000000000000000000000000C0
:04004000D5040020C3
:100044007047704770477047704770477047104B50
:10005400104A2DE9F041884607460021934202D018
:1000640003F8011FFAE70C4B0C4CE41AA41000250A
:100074001E46A54205D056F8253003B198470135F0
:10008400F7E74146384600F00BF8BDE8F08100BFC1
:100094001F0500207B0500204000002044000020B4
:1000A400704770B5934C9FED946A237C9FED937ACF
:1000B400D4ED086A9FED925A0D4619466FF300017C
:1000C4002174818884ED0B6A13F0010F4FEA212318
:1000D40018BF84ED006A962BD8BF1846C9B203F145
:1000E4000103DBB207EE901AC8BF9720854984ED5F
:1000F4000D6A962B88BF9723F8EEE77A01EB800010
:1001040001EB83032DED0A8B67EE877A90ED009A5D
:1001140093ED007A7C4B94ED00AADFED7CCA84ED6C
:10012400126A37EE497AF7EE009AA7EE879A05EB42
:100134008206DFED777A84ED146AB4EEE79AF1EE85
:1001440010FAA8BFB0EE679ADFED727A29EE279A0B
:10015400DFED717A84ED019A29EE267A77EE675AFB
:10016400F5EEC05AF1EE10FAB8BFF0EE477A89EE18
:10017400A67A67EE857A67EE096A36EE667AB5EE98
:10018400C07A9FED5D7AF1EE10FAB8BFB0EE667AF0
:10019400FCEEE76A16EE901A05EE901AF8EE655A30
:1001A40003EB8100D0ED006A77EEE57AD0ED015AD9
:1001B40075EEE65AE7EEA56A76EEA97AC6EEA75A78
:1001C40076EEE96AC4ED0A5AC4ED095AC6EEA75A96
:1001D40067EE057AC4ED0C5ABCEEE77A17EE101AF6
:1001E40006EE901AF8EE666A03EB810077EEE67A83
:1001F40090ED007AD0ED016A76EEC76AA7EEA67A92
:1002040077EE296AF0EE477A89EEA67A77EEE97AF4
:1002140084ED107AB1EE477A84ED117A87EEA67AEE
:1002240084ED137AB5425FD094ED06BA94ED05CA15
:100234003A49BFEE008AF0EE007AF0EE488AEBEE1F
:10024400278AA1F10800B0EE4B1A18EE903A23F079
:10025400004307EE903AFCEEE78AF0EE4C0AF8EE23
:10026400688AB0EE4A0A77EEE88A00F0BDF879EEC3
:10027400E8AA2B496AEE80AAB6EE001AB0EE4A0A42
:100284003BEE011AF0EE4C0AA1F10C00C4ED02AAF7
:1002940000F0AAF83AEE09AA28EE800AFCEECA7A1F
:1002A40084ED030A3AEE800AF8EE677AB4EEC80ADF
:1002B400F1EE10FAF7EE00BA3AEE67AA07DBB4EEF5
:1002C400EB0AF1EE10FAA8BFB0EE6B0A01E0B0EE53
:1002D400480A60EE007A60EE677AA7EEAC0ABEEEDA
:1002E400E00AA5EC010A9DE784ED00AABDEC0A8BA7
:1002F40070BD00BF20050020000000008180803B0D
:10030400BC9C024400F1000864F70008CDCC4C3CCE
:1003140049FFB8463EC3AE3748E1FA3E28050020FF
:100324002C050020024A137C43F001031374704728
:1003340020050020704707EE901A03284CD8DFE808
:1003440000F0021D3C42F8EEE77A9FED247A67EE56
:10035400877AF5EEC07AF1EE10FA09DBB7EE007A8F
:10036400F4EEC77AF1EE10FAA8BFF0EE477A01E096
:10037400DFED1B7A1B4BC3ED057A7047F8EEE77A85
:100384009FED167A67EE877AF5EEC07AF1EE10FAF1
:1003940009DBB7EE007AF4EEC77AF1EE10FAA8BFE3
:1003A400F0EE477A01E0DFED0E7A0E4B93ED077A1B
:1003B40067EE277AC3ED067A7047FAEEEF7A094BB7
:1003C400C3ED077A7047F8EEE77AB7EE007A77EE76
:1003D400877A044BC3ED087A704700BF0AD7233CE1
:1003E4000000000020050020B4EEE00AF1EE10FA4F
:1003F4005DBFF7EE007A70EE606A77EEE00AC0EE59
:10040400207A30B5304A5BBF86EEA07A77EEC17AA7
:1004140027EE811AA7EE271AF5EE007A31EE271A95
:10042400D0ED0E6A90ED0A6AFCEEC17AF8EE677AB6
:1004340031EE671ADFED257A21EE271AFCEEC17A38
:1004440017EE904A04F07F0307EE104A02EB83058F
:100454000133B8EE477A03F07F0302EB8303D5ED53
:10046400007A31EE471A93ED007A37EE677A7F2CE3
:10047400E1EE077A90ED097A88BFF1EE677AF1EE42
:10048400677AE7EE876A90ED0C7A27EE667AA7EE34
:10049400867AD0ED157A80ED0E7A90ED107A90ED93
:1004A400116AE7EE267A90ED137A27EE677AA6EEC4
:1004B400267A80ED157A91ED007A77EEC77AA0EE70
:1004C400277AB0EE470A30BDDC2B010800008043D8
:1004D400104B4FF07C525A619A614FF07E52DA61B0
:1004E4001A6200225A629A62DA621A635A639A633F
:1004F400DA631A645A649A64DA641A655A659A6506
:100504001A605A609A60DA601A7C6FF300021A74F7
:08051400704700BF2005002024
:040000052000005384
:00000001FF
