:020000042000DA
:10000000554F5343000101000300000000000000B1
:1000100053000020A70000204902002059020020C0
:1000200047000020490000205B0200200000000083
:1000300000000000000000000000000000000000C0
:040040008D0200200D
:100044007047704770477047704770477047104B50
:10005400104A2DE9F041884607460021934202D018
:1000640003F8011FFAE70C4B0C4CE41AA41000250A
:100074001E46A54205D056F8253003B198470135F0
:10008400F7E74146384600F00BF8BDE8F08100BFC1
:10009400A7020020BB0200204000002044000020F2
:1000A40070475F4B9FED5F7AD3ED035AD3ED044A5B
:1000B4009FED5D2A9FED5D3ADFED5D3A70B51C7AE8
:1000C4002546E40744BF00241C608488D3ED006AFD
:1000D40020126FF3000596281D72E4B2D8BF0546BE
:1000E40000F10100C0B207EE904AC8BF9725514CF9
:1000F400962888BF9720F8EEE77A04EB850504EB91
:10010400800095ED006A4C4D67EE877A90ED007A99
:1001140037EE467A01EB8202A7EE876ADFED477A73
:10012400B4EEE76AF1EE10FAA8BFB0EE676ADFED4D
:10013400447A26EE276AB7EE005A83ED016AF5EE9B
:10014400002AFFEE001A914266D0F4EEE56AF1EE61
:1001540010FA04D5C6EEA57A67EEA47A0DE076EE21
:10016400E57A35EE654A87EE847A75EE647AB0EE08
:10017400644AA7EE274AF0EE447A77EEA27ABCEE00
:10018400E77AB8EE477A37EEC77A27EE027AFCEEC2
:10019400C77A17EE904A04F07F0004EE104A05EB8C
:1001A40080060130B8EE444A00F07F0005EB800081
:1001B400D6ED007A37EE447A90ED004A34EE674A81
:1001C4007F2CE7EE047A88BFF1EE677AF1EE677A66
:1001D400F4EEE17AF1EE10FA07DBF4EEC57AF1EE13
:1001E40010FAA8BFF0EE457A01E0FFEE007A27EEA0
:1001F400A77A76EE866A27EEC77AE7EE037A67EE89
:10020400A37AFDEEE77AE1EC017AFCEEE67AF8EE09
:10021400677A76EEE76A96E7C3ED006A70BD00BFC1
:10022400A80200208180803B00008043CDCC4C3D5F
:100234000000004F00F10008DC2B010849FFB8461C
:100244003EC3AE37024A137A43F001031372704778
:10025400A8020020704707EE901A9FED097AF8EE85
:10026400E77A062867EE877A02D0072804D0704719
:10027400044BC3ED037A7047024BC3ED047A704715
:100284000820803AA8020020054B197A00226FF357
:1002940000011A605A601972DA601A61704700BF6F
:0402A400A80200208C
:040000052000005384
:00000001FF
