:020000042000DA
:10000000554F5343000101000300000000000000B1
:1000100053000020A7000020A9040020B9040020FC
:100020004700002049000020BB0400200000000021
:1000300000000000000000000000000000000000C0
:04004000A1050020F6
:100044007047704770477047704770477047104B50
:10005400104A2DE9F041884607460021934202D018
:1000640003F8011FFAE70C4B0C4CE41AA41000250A
:100074001E46A54205D056F8253003B198470135F0
:10008400F7E74146384600F00BF8BDE8F08100BFC1
:10009400AF0500202306002040000020440000207B
:1000A4007047F34B9FEDF35A9FEDF37AD3ED0E6A4D
:1000B4009FEDF24AF0B51C7F25466FF300052DED48
:1000C400108B1D778588DFEDEE9A83ED115A14F0BD
:1000D400010F4FEA252418BF83ED005A962CD8BF90
:1000E4002646EDB204F10104E4B207EE905AC8BF0B
:1000F4009726E44D83ED135A962C88BF9724F8EE87
:10010400E77A05EB860605EB8404D6ED005A83ED09
:10011400185A67EE877A94ED007ADB4C83ED1A5A0D
:1001240037EE657A93ED05BAD3ED08BA93ED0BCAB1
:100134009FEDD6AAE7EE875ADFEDD57AF4EEE75ABB
:10014400F1EE10FAA8BFF0EE675ADFEDD27A65EE51
:10015400A75ADFEDD17AC3ED015A25EEA67AB5EEA2
:10016400009A37EE676AF0EE49EAB5EEC06AF1EE3E
:1001740010FAB7EE006AB8BFF0EE477A86EE267A38
:1001840067EE847A67EE256AB0EE69FA35EE667A30
:10019400FFEE00FAB5EEC07A9FEDB67AF1EE10FAF2
:1001A400B8BFB0EE667AFCEEE76A16EE905A04EE3B
:1001B400905AF8EE644A04EB8506D6ED006A77EEB1
:1001C400E47AD6ED014A74EEE64AE7EEA46AD3ED8A
:1001D400044A76EE867A86EEA71A76EEC66A83ED30
:1001E400101A86EEA70A67EE047A83ED0F1ABCEEA6
:1001F400E77A83ED120A17EE105A06EE905AF8EEDB
:10020400666A04EB850696ED007AA44C93ED064AE3
:1002140077EEE67AD6ED016A76EEC76A2546A7EE52
:10022400A67AD3ED006AF0EE477A77EEC67A37EE17
:10023400067AC7EE878AD0ED007AC3ED198AC6EE36
:10024400070AFAEEE07A07EE102AC3ED037AB8EE55
:10025400477A77EEE47AB1EE608AC7EE87AA01EBBB
:100264008202C3ED160A83ED178AD3ED09CA93ED12
:100274000CDAD3ED0ADA93ED0DEA93ED142AD3EDFB
:100284001B2AD3ED023A914200F0E28074EE097A1F
:10029400BCEEE77AB8EE477A37EEC77A27EE297ACA
:1002A400FCEEC77A17EE906A06F07F0005EE106A3E
:1002B40004EB80070130B8EE455A00F07F0004EBF0
:1002C400800037EE457AD7ED007A90ED005A35EE8E
:1002D400675A7F2EE7EE057AB0EE675A88BFB1EE13
:1002E400675A74EEAB7A35EE0C7AF4EEE76AF1EE07
:1002F40010FA04D5C6EEA71A61EE877A35E034EE1B
:10030400AC3A75EE0D1AF4EEC36AF1EE10FA0CD5A0
:1003140036EEE75A33EE673A71EEC71AC5EE037A42
:10032400A7EEA17AF0EE477A1FE034EEAD7A75EECF
:100334000E7AF4EEC76AF1EE10FA0CD536EEC35A13
:1003440037EE433A77EEE17A85EE037AE7EE271A41
:10035400F0EE617A09E036EEC75A36EE477A85EE5A
:10036400073A36EE677AE3EE077A77EEAE7A3BEE3B
:10037400044AFCEEE71A74EEAA4AF8EE611A77EE24
:10038400E17A67EE8F7ABCEEE77A17EE106A06F030
:100394007F0005EE106A05EB80070130B8EE455A80
:1003A40000F07F0005EB800077EEC57A97ED007AC8
:1003B40090ED005A35EE475A7F2EA7EE857AF0EE7F
:1003C400477A88BFF1EE477AF1EE677AB0EE427A67
:1003D400A1EE277A27EE402AA1EE272AF0EE627AD0
:1003E400E0EE877A67EEE82A77EEE37AE8EE072A0A
:1003F400E6EEA73A76EEA56AF4EEEF3AFCEEE67A7C
:10040400F1EE10FAF8EE677A76EEE76AFCEEC47A5B
:10041400F8EE677A34EE674A09DBF4EEC63AF1EE99
:1004240010FAF7EE007AB8BFF0EE637A01E0FFEE5F
:10043400007A27EEA77A27EEC77AE7EE0A7A9FEDCD
:10044400187A67EE877AFDEEE77AE1EC017A1AE72B
:10045400BDEC108B83ED142AC3ED1B2AC3ED023AC5
:10046400C3ED006A83ED064AC3ED044AF0BD00BF44
:10047400B0050020000000008180803BBC9C024449
:100484000000804300F1000864F70008CDCC4C3D27
:1004940049FFB8463EC3AE3748E1FA3EDC2B0108BB
:1004A4000000004F024A137F43F0010313777047A3
:1004B400B0050020704707EE901A9FED1E7AF8EE03
:1004C400E77A27EE877A072833D8DFE800F00404B8
:1004D400040404041D279FED187A67EE877AF5EE6D
:1004E400C07AF1EE10FA09DBB7EE007AF4EEC77ABF
:1004F400F1EE10FAA8BFF0EE477A01E0DFED0F7AD3
:100504000F4BC3ED087A7047DFED0E6A0C4BF7EE24
:10051400007AE7EE267AC3ED0E7A7047F3EE0E7A90
:1005240027EE277ADFED087A054B27EE277A83ED4D
:10053400057A70470820803A0AD7A33B00000000E0
:10054400B00500200000C8423EC3AE370022114669
:10055400C263026442648264C26402654265826565
:10056400C265026642668266C266026702604260D3
:100574008260C26002614261826110B5027F61F3F0
:10058400000202774FF07C52026242628262C262CF
:10059400026342634FF07E52826310BD08B5024885
:0C05A400FFF7D4FF08BD00BFB005002029
:040000052000005384
:00000001FF
