:020000042000DA
:10000000554F5343000101000300000000000000B1
:1000100053000020A70000203D0300204D030020D6
:1000200047000020490000204F030020000000008E
:1000300000000000000000000000000000000000C0
:04004000B1030020E8
:100044007047704770477047704770477047104B50
:10005400104A2DE9F041884607460021934202D018
:1000640003F8011FFAE70C4B0C4CE41AA41000250A
:100074001E46A54205D056F8253003B198470135F0
:10008400F7E74146384600F00BF8BDE8F08100BFC1
:10009400EF0300203B040020400000204400002027
:1000A40070479A4B9FED9A7AD3ED044A9FED995A83
:1000B40093ED034A9FED980ADFED980A70B51C7A18
:1000C40014F0010F254684886FF300052DED068B8F
:1000D4004FEA24201D724FF0000518BF1D609628BA
:1000E400D8BF0646E4B200F10100C0B207EE904A60
:1000F400C8BF97268A4CDD61962888BF9720F8EE02
:10010400E77A04EB860604EB8000D6ED005A5D62C4
:1001140067EE877A90ED007A82489D6337EE657AC0
:100124001D64E7EE875A804DDFED807ADFED808A2B
:10013400F4EEE75AF1EE10FAA8BFF0EE675ADFEDDD
:100144007D7A65EEA75A01EB820265EEA46AC3EDDF
:10015400015A66EE856AB6EE001AFCEEE67AB5EE52
:10016400008A17EE904A00EB840696ED007A96ED2D
:10017400016AF8EE677A36EE476A76EEE76ABFEE12
:10018400009AA6EE867AF7EE006A77EE267AF0EE0B
:10019400669AC7EE273A37EE667AC3ED063AC7EE9B
:1001A400272AC6EEA47AD3ED0A4AC3ED053A67EED0
:1001B400A57AC3ED082A67EE857A93ED115ABCEE51
:1001C400E77A17EE104A06EE104AB8EE466A00EBDC
:1001D400840677EEC67A96ED007A96ED016A36EEDD
:1001E400476AA7EE867A93ED006AF0EE477A37EE17
:1001F400267A77EEE67A86EE873AC7EE871AB1EE6C
:10020400432A83ED0C3A83ED0D2AC3ED0F1A914274
:1002140072D0B4EEC46AF1EE10FA5BBF76EE447AA3
:1002240036EEC4AA86EE047A87EE8A7A58BF37EE91
:10023400267A27EE017A37EE087AFCEEC77AF8EED2
:10024400677A77EE677A67EEA87ABCEEE77A17EEFC
:10025400104A04F07F000AEE104A05EB80060130D4
:10026400B8EE4AAA00F07F0005EB800077EECA7A68
:1002740096ED007A90ED00AA3AEE47AA7F2CA7EEFD
:100284008A7AF0EE477A88BFF1EE477AF1EE677A20
:10029400B0EE647AA3EEA77A67EE624AE3EEA74A69
:1002A400F0EE457AE3EE077A27EEE15AF4EEC97AE6
:1002B400F1EE10FAA2EE075A07DBF4EEE67AF1EE5D
:1002C40010FAA8BFF0EE697A01E0FFEE007A27EE9B
:1002D400A77A36EE256A27EEC77AE7EE007A67EE4C
:1002E400A07AFDEEE77AE1EC017AFCEEC67AF8EE4C
:1002F400677A36EE676A8AE7BDEC068BC3ED0A4A75
:1003040083ED115A83ED006A70BD00BFF003002035
:100314008180803BBC9C0244CDCC4C3D0000004F0E
:1003240000F1000864F70008DC2B010849FFB84617
:10033400000080433EC3AE37024A137A43F0010300
:1003440013727047F0030020704707EE901A10B143
:1003540001281BD07047F8EEE77A9FED117A67EE1B
:10036400877AF5EEC07AF1EE10FA09DBB7EE007A7F
:10037400F4EEC77AF1EE10FAA8BFF0EE477A01E086
:10038400DFED087A084BC3ED037A7047F8EEE77A9D
:10039400B7EE007A77EE877A034BC3ED047A7047A1
:1003A4000AD7233C00000000F00300200E4B197A0A
:1003B4006FF3000119724FF07C510022D9604FF0A5
:1003C4007E511A605A6019615A619A61DA611A623F
:1003D4005A629A62DA621A635A639A63DA631A6433
:0C03E4005A649A64704700BFF0030020C8
:040000052000005384
:00000001FF
