:020000042000DA
:10000000554F5343000101000300000000000000B1
:10001000530000203B010020610200206302002009
:100020004700002049000020650200200000000079
:1000300000000000000000000000000000000000C0
:04004000A1030020F8
:100044007047704770477047704770477047104B50
:10005400104A2DE9F041884607460021934202D018
:1000640003F8011FFAE70C4B0C4CE41AA41000250A
:100074001E46A54205D056F8253003B198470135F0
:10008400F7E74146384600F055F8BDE8F08100BF77
:10009400C7030020E30300204000002044000020A8
:1000A400B4EEE00AF1EE10FA5DBFF7EE007A30EE3E
:1000B400600A77EEE00AC0EE207A1C4A5BBF80EE4D
:1000C400207A77EEC17A27EE811AA7EE271AF5EE89
:1000D400007A31EE271AFCEEC17AF8EE677A31EE37
:1000E400671ADFED137A21EE271AFCEEC17A17EEB8
:1000F400901A01F07F0302EB83000133F8EE677A74
:1001040003F07F0302EB830390ED000A31EE671ADC
:10011400D3ED007A77EEC07A7F29A1EE270A88BF53
:10012400B1EE400AB1EE400A704700BFDC2B010873
:1001340000008043704780889FED417A0312962B1C
:100144002DE9F0410E46C1B2D8BF184603F10103B0
:10015400DBB207EE901AC8BF97203A493A4C962B67
:1001640088BF9723F8EEE77A01EB800001EB830365
:1001740067EE877A2DED028B93ED007AD0ED008A3D
:10018400257B94ED008A37EE687A05F00305E7EEE7
:10019400878A05F0020706EB8208DFED2C7AF4EE7D
:1001A400E78AF1EE10FAB8BFF0EE687ADFED288A3C
:1001B40067EEA88AFFB2C4ED018A46453AD02FB152
:1001C400B0EE480A204800F079F801E09FED210ADA
:1001D400EB0707D594ED051AD4ED040AB0EE480AEE
:1001E400FFF75EFF38EE288AFCEEC87AF8EE677AED
:1001F40038EE678AFFEE007AB4EEE70AF1EE10FA01
:1002040009DBF7EE007AB4EEE70AF1EE10FAA8BFC4
:10021400B0EE670A01E0B0EE670A60EE007A9FED87
:100224000E7A60EE677AA7EE870ABEEEE00AA6ECC5
:10023400010AC2E784ED008ABDEC028BBDE8F081BF
:100244008180803B00F10008C803002049FFB846C4
:100254003EC3AE3700000000CDCC4C3D7047704724
:1002640007EE901AB8EEE77ADFED117A062867EE0A
:10027400277A0FD0072811D0C0B90E4BDFED0E7AC4
:100284001A7B27EE277A022161F3010283ED067AB5
:100294001A737047074BC3ED047A7047054B1A7BFA
:1002A400C3ED057A012161F301021A73704700BF9F
:1002B4000820803AC8030020CDCCCC3D90ED066ADE
:1002C40090ED045AF0EE007AFFEE006AE6EE276A3B
:1002D40010B5F0EE667AFCEEE66AB0EE461AF8EE79
:1002E400666AF0EE450A0446F0EE405A77EEE66A96
:1002F400FFF7D6FEB6EE001AF0EE404A36EE011ACB
:10030400F0EE450AB0EE650AFFF7CAFEF7EE007A92
:1003140026EE800A77EEE66AB5EE007AA4EEA60A27
:100324001C4A94ED026A30EE077AFCEEC77AF8EEC6
:10033400677A37EE677ADFED187A67EE277ABCEED4
:10034400E77A17EE101A01F07F0306EE901A02EB1B
:1003540083000133F8EE666A03F07F0302EB830344
:1003640090ED007A77EEE67AD3ED006A76EEC76A0E
:100374007F29A7EEA67AF0EE477A88BFF1EE477A96
:1003840077EEC67AA5EEA76AB0EE460A84ED026A55
:1003940010BD00BFDC2B010800008043084B002285
:1003A4001A605A609A601A7B012161F301021A7380
:1003B4004FF07C521A615A614FF07F529A61704734
:0403C400C80300204A
:040000052000005384
:00000001FF
