:020000042000DA
:10000000554F5343000101000300000000000000B1
:1000100053000020A7000020490200204B020020CE
:1000200047000020490000204D0200200000000091
:1000300000000000000000000000000000000000C0
:04004000290600206D
:100044007047704770477047704770477047104B50
:10005400104A2DE9F041884607460021934202D018
:1000640003F8011FFAE70C4B0C4CE41AA41000250A
:100074001E46A54205D056F8253003B198470135F0
:10008400F7E74146384600F00BF8BDE8F08100BFC1
:10009400370600207706002040000020440000209E
:1000A400704770B5604C808894F820309FED5F7A7B
:1000B40003F007066FF3020384F820300312962B33
:1000C4000D46C1B2D8BF184603F10103DBB207EEF7
:1000D400901AC8BF97205649962B88BF9723F8EEED
:1000E400E77A01EB800001EB830367EE877A2DED5D
:1000F400088B93ED007AD0ED009A37EE697AE7EE3B
:10010400879ADFED4C7AF4EEE79AF1EE10FAA8BF85
:10011400F0EE679AF00748BF94ED097ADFED467A6E
:1001240048BF27EE277A69EEA79A44BF84ED027A86
:1001340084ED037AB107C4ED019A0BD594ED097AE5
:10014400D4ED0C6A27EE277A84ED037A26EE877ABB
:1001540084ED027A73070BD594ED097A67EE277A5A
:1001640094ED0D7AC4ED027A67EE277AC4ED037A32
:1001740094ED009AD4ED048A94ED058A94ED02BAC4
:10018400D4ED03BADFED2DAA9FED2DAA05EB82066F
:10019400B54240D0B0EE481AF0EE680AB0EE490A13
:1001A400214800F0E7F839EE299A7BEE288AFCEE24
:1001B400C97A3BEE888AF8EE677A39EE679AFCEEE4
:1001C400E87AF8EE677A78EEE78AFCEEC87AF8EE19
:1001D400677A38EE678AFFEE007AB4EEE70AF1EE4A
:1001E40010FA09DBF7EE007AB4EEE70AF1EE10FA42
:1001F400A8BFB0EE670A01E0B0EE670A60EE007ACD
:1002040060EE677AA7EEAA0A20EE0A0ABDEEC00ADB
:10021400A5EC010ABCE784ED009AC4ED048A84EDE0
:10022400058ABDEC088B70BD380600208180803BB8
:1002340000F1000849FFB8463EC3AE37CDCC4C3D73
:100244000000004F7047704782B00191062867D8BC
:10025400DFE800F004091D313D495500314BBDF87C
:1002640004209A875CE0DDED017A9FED2F7A2D4B17
:10027400F8EEE76AF7EE007AE6EE877A93F8202044
:1002840042F00202C3ED0C7A83F8202048E0DDED51
:10029400017A9FED257A234BF8EEE76AF7EE007AB0
:1002A400E6EE877A93F8202042F00402C3ED0D7A3B
:1002B40083F8202034E0DDED017A9FED1C7A194BA0
:1002C400F8EEE77A67EE877AC3ED0A7A28E0DDED87
:1002D400017A9FED157A134BF8EEE77A67EE877A89
:1002E400C3ED0B7A1CE0DDED017A9FED107A0D4B26
:1002F400F8EEE77A67EE877AC3ED0E7A10E0DDED6B
:10030400017A084B9FED0A7A93F82020F8EEE77AF9
:1003140042F0010267EE877A83F82020C3ED097A60
:1003240002B0704738060020CDCC4C3D0AD7233CA0
:100334009A99993E90F82010002262F3020180F805
:1003440020104FF07C5141624FF07E518162C162B6
:10035400016341630121026042608260C260026104
:1003640042618261C261826380F83C1080F83D2062
:1003740070470000D0ED0E7AA54B70EEA70AB5EEDB
:10038400007A70EE870ADFEDA37AFCEEE06A10B51E
:10039400F8EE666AB0EE675A70EEE60A31EE071AB6
:1003A40060EEA70AFCEEE06A16EE901A01F07F02F6
:1003B40003EB82040132F8EE666A02F07F0203EB7B
:1003C400820294ED006A70EEE60AD2ED006A76EEDF
:1003D400C66A7F29A0EEA66AF6EE006A88BFB1EE6F
:1003E400466AF0EE667AE6EE267A90ED066AC0ED8D
:1003F400067A77EEC65AA0EE256AD0ED0A5A26EEA2
:10040400256AFCEEC15AB4EEC60AF8EE655A31EE1E
:10041400651A21EE051AFCEEC17A17EE901A01F066
:100424007F0203EB8204013202F07F0203EB8202BB
:10043400D4ED005AD2ED004A828FF8EE677A74EE5A
:10044400E54A31EE671A7F29E1EE245A02F1FF32C0
:1004540088BFF1EE655AE5EEA66AF1EE10FAF0EE09
:10046400665AD0ED076AC0ED075A75EEE67AE0EEFB
:10047400276AD0ED0B7A66EEA77A5DBFF7EE006AC5
:1004840030EE460A36EEC66AC0EE066A5BBFC0EEC0
:10049400065A76EEE76A66EEA77AE5EEA67A032AAE
:1004A40000F2B480DFE802F0023A6481BCEEE77A3D
:1004B400B8EE477A37EEC77A67EE057ABCEEE77A8C
:1004C40017EE103A802B04D903F07F02C2F18002A8
:1004D40009E07E2B03D8581C17EE102A08E07F2B66
:1004E40003D017EE102A501E02E017EE102A8020C7
:1004F40007EE103A4849B8EE477A01EB820201EB65
:10050400800192ED000A77EEC77A91ED007A37EE1A
:10051400407AA7EE870AB1EE400A10BD37EE877A1B
:10052400FCEEC77AF8EE677A37EE677A67EE057AFB
:10053400BCEEE77A17EE101A01F07F0203EB82009B
:100544000132B8EE477A02F07F0203EB820390EDAA
:10055400000A77EEC77A93ED007A37EE407A7F2966
:10056400A7EE870A88BFB1EE400AB1EE400A10BD7B
:10057400BCEEE77A2949B8EE477A37EEC77A67EED8
:10058400057ABCEEE77A17EE103A7F2B87BF03F0AB
:100594007F02C2F180005A1C184692BFB7EE007A5F
:1005A400C2F17F02BFEE007A1BE0BCEEE77A1C4981
:1005B400B8EE477A37EEC77A67EE057ABCEEE77A8B
:1005C40017EE103A7F2B87BF03F07F02C2F1800041
:1005D4005A1C184692BFB7EE007AC2F17F02BFEEF2
:1005E400007A06EE903AF8EE666A01EB800001EBC1
:1005F400820290ED000A77EEE67AD2ED006A76EE9A
:10060400C06AA7EEA60A27EE400A10BD10BD00BFBF
:10061400DC2B01080000804370010108940F0108DD
:10062400B81D010808B50248FFF784FE08BD00BFE5
:040634003806002064
:040000052000005384
:00000001FF
