:020000042000DA
:10000000554F5343000101000300000000000000B1
:1000100053000020A700002089030020990300203E
:1000200047000020490000209B0300200000000042
:1000300000000000000000000000000000000000C0
:04004000390400205F
:100044007047704770477047704770477047104B50
:10005400104A2DE9F041884607460021934202D018
:1000640003F8011FFAE70C4B0C4CE41AA41000250A
:100074001E46A54205D056F8253003B198470135F0
:10008400F7E74146384600F00BF8BDE8F08100BFC1
:1000940077040020C7040020400000204400002012
:1000A4007047AB4B9FEDAB5A9FEDAB7A93ED056A6E
:1000B4009FEDAA4AD3ED042A9FEDA90ADFEDA90A10
:1000C40070B51C7A14F0010F254684884FEA242069
:1000D4002DED068B6FF3000518BF83ED005A9628AB
:1000E4001D72E4B2D8BF054600F10100C0B207EEAC
:1000F400904AC8BF97259C4C83ED085A962888BF20
:100104009720F8EEE77A04EB850504EB8000D5ED43
:10011400005A83ED0A5A67EE877A90ED007A934885
:1001240083ED0F5A37EE657A83ED115AE7EE875A5D
:1001340001EB8202DFED8E7ADFED8E8AF4EEE75A70
:10014400F1EE10FAA8BFF0EE675ADFED8B7A65EE98
:10015400A75ADFED8A7AC3ED015A25EE867AB5EE09
:10016400008A77EE676ABFEE009AF5EEC06AF1EE98
:1001740010FAF7EE006AB8BFF0EE477A86EE867A98
:1001840067EE847A27EE256AF0EE669A35EE467AB3
:1001940093ED125AB5EEC07A9FED6E7AF1EE10FA35
:1001A400B8BFB0EE467ABCEEE76A16EE104A04EE2B
:1001B400904AF8EE644A00EB840595ED006A77EE08
:1001C400E47AD5ED014A74EEC64AA7EEA46AD3EDEB
:1001D4000B4A76EE267AC6EE273A36EE666AC3ED09
:1001E400073A86EE272A67EE047A93ED034AC3EDB5
:1001F400063ABCEEE77A83ED092A17EE104A06EEBA
:10020400104AB8EE466A00EB840595ED007A77EE65
:10021400C67A95ED016A5A4D36EE476AA7EE867A9C
:1002240093ED006AF0EE477A37EE267A77EEE67AB7
:1002340086EE873A87EE871AF1EE431A83ED0D3A7C
:10024400C3ED0E1A83ED101A914278D0B4EEC46A4D
:10025400F1EE10FA04D586EE047A22EE877A0DE0E8
:1002640076EE447A36EEC4AA87EE8A7A76EEE27A9D
:10027400B0EE62AAA7EE27AAB0EE4A7A37EE087A61
:10028400FCEEC77AF8EE677A77EE677A67EEA87ABB
:10029400BCEEE77A17EE104A04F07F000AEE104A2B
:1002A40005EB80060130B8EE4AAA00F07F0005EBAA
:1002B400800077EECA7A96ED007A90ED00AA3AEEC5
:1002C40047AA7F2CA7EE8A7AF0EE477A88BFF1EE30
:1002D400477AF1EE677AB0EE647AA3EEA77A67EE16
:1002E400424AE3EEA74AF0EE457AE3EE077A27EEB8
:1002F400C15AF4EEC97AF1EE10FAA1EE875A07DB7F
:10030400F4EEE67AF1EE10FAA8BFF0EE697A01E0B5
:10031400FFEE007A27EEA77A36EE256A27EEC77A33
:10032400E7EE007A67EEA07AFDEEE77AE1EC017A77
:10033400FCEEC67AF8EE677A36EE676A84E7BDECBF
:10034400068BC3ED0B4A83ED125A83ED006A70BD30
:1003540078040020000000008180803BBC9C0244A3
:10036400CDCC4C3C0000004F00F1000864F70008BD
:1003740049FFB846000080433EC3AE3748E1FA3E29
:10038400DC2B0108024A137A43F00103137270470D
:10039400780400207047012807EE901A1ED002D37B
:1003A400022836D07047F8EEE77A9FED1F7A67EEA1
:1003B400877AF5EEC07AF1EE10FA09DBB7EE007A2F
:1003C400F4EEC77AF1EE10FAA8BFF0EE477A01E036
:1003D400DFED167A164BC3ED037A7047F8EEE77A31
:1003E4009FED117A67EE877AF5EEC07AF1EE10FA96
:1003F40009DBB7EE007AF4EEC77AF1EE10FAA8BF83
:10040400F0EE477A01E0DFED097A094BC3ED047A97
:100414007047F8EEE77AB7EE007A77EE877A044B06
:10042400C3ED057A704700BF0AD7A33B0000000064
:10043400780400200E4B197A6FF3000119724FF003
:100444007C510022D96019614FF07E511A605A60C4
:1004540059619A61DA611A625A629A62DA621A63BB
:100464005A639A63DA631A645A649A64DA64704762
:0404740078040020E8
:040000052000005384
:00000001FF
