:020000042000DA
:10000000554F5343000101000300000000000000B1
:1000100053000020A700002019040020290400201C
:1000200047000020490000202B04002000000000B1
:1000300000000000000000000000000000000000C0
:040040000506002091
:100044007047704770477047704770477047104B50
:10005400104A2DE9F041884607460021934202D018
:1000640003F8011FFAE70C4B0C4CE41AA41000250A
:100074001E46A54205D056F8253003B198470135F0
:10008400F7E74146384600F00BF8BDE8F08100BFC1
:10009400170600207F0600204000002044000020B6
:1000A4007047CF4B9FEDCF5A9FEDCF7AD3ED0B5ACC
:1000B4009FEDCE4AD3ED082A93ED092A70B51C7C36
:1000C40025466FF300052DED0C8B1D74858883ED9B
:1000D4000E5A14F0010F4FEA252418BF83ED005A7D
:1000E400962CD8BF2646EDB204F10104E4B207EE23
:1000F400905AC8BF9726BE4D83ED105A962C88BFE0
:100104009724F8EEE77A05EB860605EB840496ED72
:10011400006A83ED155A67EE877A94ED007AB54C40
:1001240083ED175A37EE467A93ED059AD3ED069A86
:1001340093ED07AA9FEDB0BADFEDB08A9FEDB08AC8
:10014400A7EE876A01EB8202DFEDAE7AB4EEE76ACE
:10015400F1EE10FAA8BFB0EE676ADFEDAB7A26EED7
:10016400276ADFEDAA7A83ED016A26EE257AF5EE99
:1001740000AA77EE676AFFEE00BAF5EEC06AF1EE08
:1001840010FAF7EE006AB8BFF0EE477A86EEA57A69
:1001940067EE847A67EE065AB0EE66CA35EE657A83
:1001A40090ED005AB5EEC07A9FED8E7AF1EE10FA1A
:1001B400B8BFB0EE657AFCEEE75ABAEEE05A15EE37
:1001C400905A04EE905AF8EE644A04EB8506D6ED94
:1001D400005A83ED035A77EEE47AD6ED014A74EEC1
:1001E400E54AE7EEA45A75EEA67AC5EEA73A75EE8F
:1001F400E65AC3ED0D3A85EEA71A67EE047AC3ED0D
:100204000C3ABCEEE77A83ED0F1A17EE105A05EE9E
:10021400905AF8EE655A04EB850696ED007A7C4D0B
:1002240077EEE57AD6ED015A75EEC75AA7EEA57AB0
:10023400F0EE477A37EE267A77EEE67A86EE873A5C
:1002440087EE870AF1EE430A83ED133AC3ED140AED
:1002540083ED160A93ED007AD3ED0A1A93ED114A51
:10026400D3ED184AD3ED025A914200F0AD8035EE39
:1002740009DAB4EECD7AF1EE10FA04D5C7EE0D7AB0
:1002840062EEA77A39E075EE29CAB4EEEC7AF1EEA3
:1002940010FA0ED57CEECD7A77EE4DDAB0EE62DA56
:1002A400CDEEA7CA72EE627AACEEA7DAF0EE4D7A22
:1002B40023E075EE0A7AB4EEE77AF1EE10FA0ED581
:1002C40037EE6CDA77EEEC7ACDEE27CA71EEC27AAD
:1002D400B0EE42DAACEEA7DAF0EE4D7A0DE037EE8E
:1002E40067DA76EEE77ACDEE27CA76EEE17AB0EEFB
:1002F40061DAACEEA7DAF0EE4D7A77EEAA7AFCEE8C
:10030400E7CAF8EE6CCA77EEEC7A67EE8B7AFCEE0D
:10031400E7CA1CEE904A04F07F000DEE104A05EB8C
:1003240080060130B8EE4DDA00F07F0005EB800066
:1003340077EECD7AD6ED00CA90ED00DA3DEE6CDAB8
:100344007F2CE7EE8DCAF0EE6C7A88BFF1EE6C7A02
:10035400F1EE677AA3EEA74AF0EE44CA24EE414ACE
:10036400A3EEA74AF0EE647AE3EE2C7A67EEC04A75
:1003740077EEE57AE0EEAC4AE7EE275A37EE067AF6
:10038400F4EEEB5AFCEEC77AF1EE10FAF8EE677A67
:1003940037EE677A09DBF4EEE65AF1EE10FAB4BFF1
:1003A400F0EE657AF0EE4C7A01E0FFEE007A67EE4B
:1003B400A7CA67EEECCAECEEA87A67EE887AFDEE7F
:1003C400E77AE1EC017A4FE7BDEC0C8B83ED114A3F
:1003D400C3ED184AC3ED025A83ED007A70BD00BF25
:1003E40018060020000000008180803BBC9C024471
:1003F40000F1000864F7000800008043CDCC4C3DB8
:100404000000004F49FFB8463EC3AE3748E1FA3E0C
:10041400DC2B0108024A137C43F001031374704778
:1004240018060020704707EE901A062800F2B780DD
:10043400DFE800F0041F3A55708BA600F8EEE77A67
:100444009FED577A67EE877AF5EEC07AF1EE10FAEF
:1004540009DBB7EE007AF4EEC77AF1EE10FAA8BF22
:10046400F0EE477A01E0DFED4F7A4F4BC3ED057AAA
:100474007047F8EEE77A9FED4A7A67EE877AF5EEF1
:10048400C07AF1EE10FA09DBB7EE007AF4EEC77A1F
:10049400F1EE10FAA8BFF0EE477A01E0DFED417A01
:1004A400414BC3ED087A7047F8EEE77A9FED3C7A4A
:1004B40067EE877AF5EEC07AF1EE10FA09DBB7EE53
:1004C400007AF4EEC77AF1EE10FAA8BFF0EE477A9C
:1004D40001E0DFED347A344BC3ED067A7047F8EE71
:1004E400E77A9FED2F7A67EE877AF5EEC07AF1EE20
:1004F40010FA09DBB7EE007AF4EEC77AF1EE10FADF
:10050400A8BFF0EE477A01E0DFED267A264BC3ED73
:10051400097A7047F8EEE77A9FED217A67EE877AD9
:10052400F5EEC07AF1EE10FA09DBB7EE007AF4EEDC
:10053400C77AF1EE10FAA8BFF0EE477A01E0DFEDDA
:10054400197A194BC3ED077A7047F8EEE77A9FEDF5
:10055400147A67EE877AF5EEC07AF1EE10FA09DBC9
:10056400B7EE007AF4EEC77AF1EE10FAA8BFF0EE17
:10057400477A01E0DFED0B7A0B4BC3ED0A7A704743
:100584009FED0A7ADFED0A6A074BF8EEE77A67EE29
:10059400877AB7EE007AA7EEA67A83ED0B7A7047D6
:1005A4000AD7233C00000000180600200820803AE7
:1005B4000000C84200221146026342638263C263A0
:1005C400026442648264C264026542658265C265F3
:1005D40002664266026042608260C26010B5027CBC
:1005E40061F3000202744FF07C5242618261C26185
:1005F4000262426282624FF07E52C26210BD00000B
:1006040008B50248FFF7D6FF08BD00BF1806002052
:040000052000005384
:00000001FF
